:020000020000FC
:100000007BC11895189518951895189518951895F9
:100010001895189518951895189537C1189518952D
:100020001895189518953C60000007B30F6007BB42
:1000300008B3007F08BBFFD0E0E6058385D007C189
:10004000E0E6058119D1012B022B032B09F076C0C4
:1000500000B3E0E61681112339F01A9509F44AC07D
:100060001A9509F465C066C0102F1C71103161F437
:1000700003810395038373D078D00D3208F45AC0FE
:1000800003E05ED003E00895102F1C71183169F46D
:1000900002810395028369D05DD002810D3208F49C
:1000A00049C002E04DD002E00895102F1C711431B8
:1000B00061F401810395018352D05FD04AD0018160
:1000C0000D32C0F101E000833DC00C710C3091F5A0
:1000D00004810395048343D00181002319F0028138
:1000E0000A95028336D004810D3220F104E028D035
:1000F00004E008950C710C31E9F401E0E0E6E00F52
:100100001081112311F01A95108303950530B0F377
:1001100010E001E0E02FE05A2081222309F013953E
:1001200003950530B8F3112329F402E0E0E601C09D
:1001300000E0068309D0E0E6058189D000E008955B
:10014000008301E00683089542E050E060E070E043
:1001500008950381002311F00A9503830895028115
:10016000002311F00A95028308950181002311F004
:100170000A95018302D0038108950481002311F0C0
:100180000A95048308953CD050DF78940895FBDFEE
:1001900052D0E7E6028313C0023019F4C29A22D08B
:1001A000C298E7E60181013019F4C19A1BD0C198C9
:1001B000E7E60181043019F4C39A14D0C39840DFF4
:1001C000E7E60183033041F70081002311F4C09A70
:1001D00003C0013009F4C0981081117001E01027AC
:1001E0001083EDCF4CE350E060E070E002812FD04F
:1001F000E7E6028141D0012B022B032BC9F70895BA
:1002000040E0042F36D0040FEAE6E00F00E010E0F3
:10021000008301830283038301E0048343954A3012
:1002200080F309B7016009BF0DE706BF12BF03B72E
:10023000046003BF089500E056D0113019F410E0B7
:100240001483089503950A30B8F300E008950A3046
:1002500070F40ED0010FEAE6E00F0481013039F0AE
:1002600009B70E7F09BF3AD009B7016009BF0895E9
:10027000102F000F000F0895FBDF010FE02FE6594C
:1002800000811181228133810895EA937A936A93E0
:100290005A934A932A931A930A932FB700E002BF06
:1002A00022D0112371F44081518162817381452BE9
:1002B000462B472B31F04081415050406040704008
:1002C0000DD003950A3060F32FBF09911991299140
:1002D0004991599169917991E99118954083518398
:1002E000628373830895102F110F110F100FEAE628
:1002F000E10F148108952DC00BED0DBFCCEB07D09D
:10030000002309F010D043DF01D0F5CFF4CF01E096
:10031000089510E01D930A95E9F7089515911D932E
:100320000A95E1F7089586E290E0FC010591A49119
:10033000FC01329625913491122F132B19F0F901FB
:10034000EDDF01C0E6DF049610E08A32910768F322
:040350000895FFCF3E
:0400000300000000F9
:00000001FF
